:020000040000FA
:020000002728AF
:100008007E1480314E018F1E0A280B282528813145
:10001800CE218031F5007508F000420119088031C1
:10002800F92080314001180CF500750C0139F500F4
:100038000130F506F50DF50D18087506FB3975063E
:1000480098007E1009002828F7012030840000302D
:1000580085002A308131C3218031A03084000030EE
:10006800850042308131C32180317E1040014E2904
:100078004001DA00530886008701403FD500413F20
:10008800D60055088400560885001200253A031D3D
:100098004E284F289428530886008701013081078D
:1000A80041310318810AC201C301C601C701FF30EB
:1000B800C400FF30C500530886008701403FD500C3
:1000C800413FD60055088400560885001200253A9D
:1000D800031D6F287028892853088600870101307E
:1000E800810741310318810A2530CB000030CC004C
:1000F8005A08D5005508CD008031B820803101302C
:100108004001D3000030D400B72853088600870187
:100118000130810741310318810AD301D401B7287E
:10012800530886008701403FD500413FD600550857
:100138008400560885000008D700D8015708CB006E
:100148005808CC005A08D9005908CD008031B82089
:100158008031400153088600870101308107413111
:100168000318810A8328080040014D080319BD2897
:10017800BE28C3284D08031DC228C328C8284B0819
:100188008131BC218031F8284D08033E8600870163
:10019800160001040319D128D228EF284D08033E80
:1001A80086008701403FCE00413FCF004D0A8600C0
:1001B8008701403FD000413FD1005108803AD2002A
:1001C8004F08803A5202031DEB284E0850020318CC
:1001D800EE28EF28F82840014D0A860087010130F3
:1001E800810741310318810A0800F3007008403E76
:1001F800860087010108013E3F39F1007108F400CB
:100208007008413E8600870101087406031D0D2908
:100218000E290F2925297408F1007008403E860030
:100228008701710881007308F1007008403E86005C
:10023800870101087007F2007208860087017108BB
:10024800810008004001E0005C08E2005B08E10072
:10025800C001C10140296130DE005E08D3005D089D
:10026800DF005F08D400600880313C208131400104
:100278005308C0075408C13D61088400620885001E
:100288001200031D482949292F294108DC0040088C
:10029800DB00080005305101930060308D0081318A
:1002A800732181318131C921813140011211181125
:1002B8000B304001EE002630ED005D30890B6229DD
:1002C800ED0B6229EE0B622900328B304001E3000E
:1002D8008130E4008131A0218131712927280F3034
:1002E8007E01900042019E161E129D177E01381055
:1002F80001307D01CB00400192147E01B81042010B
:100308001D169F141E119F1119309B0008004534BB
:100318006E3474346534723469346E34673420341E
:100328007734683469346C3465342834313429348A
:1003380020340A340D34003465304001E500650886
:10034800E8006408DC006308DB006830E500650845
:10035800DD0000308131262181310800F6004E0190
:100368000F1EB729B829B329760842019A00080058
:100378004001CA004A088131B22181310800640075
:1003880080010131890BC42900344E0199160B17DD
:080398008B170800A0300800DB
:020000040001F9
:0A000E00EF3EFF3F9F3FFF3FFF3F23
:00000001FF
