:020000040000FA
:02000000432893
:100008007E1480312000101E0A280B281F2801307A
:10001800F3007308D5002700931020001012971BD7
:10002800162817281C28B830960015309500971701
:100038008231932280312000111C2328242838285B
:1000480011108331BD2380317708031D2C282D28FA
:1000580030288231682280317703031D34283528FF
:1000680038288331662380312000901E3C283D28A3
:10007800412890128331352380317E1009004428AD
:100088008331F1238031F8008331F2238031F90084
:10009800F601F7014E3084000030850008308331C6
:1000A800C5238031A030840000308500443083317E
:1000B800C523803120308400013085002030833111
:1000C800C52380317E102000282A23308600003086
:1000D800870020302000A10000301E00A10B7128ED
:1000E800C301C40100308331122380317508200018
:1000F800C7007408C6000A3047028D30031946024B
:10010800031C872888286B290F304702D23003192F
:1001180046020318902891286B29C501C50A45088D
:1001280083311223803175082000C7007408C60087
:1001380000304702FB3003194602031CA428A528F7
:10014800B428013047027730031946020318AD2856
:10015800AE28B4284508FF3E233E8600870181016A
:1001680001304702F53003194602031CBC28BD289C
:10017800CD2802304702EE30031946020318C5287D
:10018800C628CD284508FF3E233E86008701810109
:10019800810A0130A1002108C50721304502031C4E
:1001A800D628D72893284208A1002108C30741353B
:1001B800A1002108C3074008A1000130A135FF3E76
:1001C800031DE2282135A2002208C3073F08A10029
:1001D8000230A135FF3E031DED282135A20022087B
:1001E800C3073E08A1000330A135FF3E031DF828D0
:1001F8002135A2002208C3073D08A1000430A1351B
:10020800FF3E031D03292135A2002208C3073C082D
:10021800A1000530A135FF3E031D0E292135A2009E
:100228002208C3073B08A1000630A135FF3E031D85
:1002380019292135A2002208C3072A08A10021088C
:10024800C4072935A1002108C4072808A1000130E6
:10025800A135FF3E031D2C292135A2002208C40721
:100268002708A1000230A135FF3E031D372921359B
:10027800A2002208C4072608A1000330A135FF3ECA
:10028800031D42292135A2002208C4072508A10020
:100298000430A135FF3E031D4D292135A200220857
:1002A800C4072408A1000530A135FF3E031D5829C5
:1002B8002135A2002208C4072308A1000630A13571
:1002C800FF3E031D63292135A2002208C407440804
:1002D800031D6F297029722943087329003008000B
:1002E8002000A000072A8331DF2381318331742362
:1002F80081318331DF238131272A83319223813170
:100308008331DF238131272A83317423813183317B
:10031800D5238131F701FF30F4007F30F5008331B8
:10032800D02381316C308231EB228131023083312C
:1003380046238131272A8331742381318331D523A0
:100348008131F701FF30F4007F30F5008331D0238D
:1003580081316C308231EB22813104308331462384
:100368008131272A8331742381318331D523813127
:10037800F701FF30F4007F30F5008331D02381315D
:100388006C308231EB228131063083314623813152
:10039800272A8331742381318331D5238131F701B1
:1003A800FF30F4007F30F5008331D02381316C3089
:1003B8008231EB2281310830833146238131272A6B
:1003C8008331B5238131272A833174238131272A48
:1003D8009930F400F930F5008331D0238131F701E9
:1003E800F70A8331AD23813168308231EB228131C4
:1003F8008331E3238131272A8331DF23813183311C
:1004080074238131272A20081F3A0319E829203A42
:1004180003199F29703A0319EC29103A0319CD29B9
:10042800303A0319E429103A03198129E83A0319E3
:10043800002A283A03198829603A0319B629203A6C
:1004480003197729272A0800320098138331CB2310
:1004580082318231FF2282318331D5238231833147
:100468009B23823183317423823183317E2382310D
:100478008331242382318231B52282318231D522DF
:10048800823163002000550803194B2A4C2A452A5B
:100498008331EB238231003A0319532A542A4C2A18
:1004A8008B138031692082312000CC004C08CD00AC
:1004B8004D088131742182318231B5228231200088
:1004C800D5018B17452A43280130F2007208200015
:1004D800CE073C304E06031D722A732A922ACE019B
:1004E8000130F2007208CF073C304F06031D7D2A09
:1004F8007E2A922ACF010130F2007208D0075008F4
:100508005106031D882A892A922AD0015108183CCD
:1005180083315623823183316623823108002000DB
:100528001508F000F1017635A03E860087017008B5
:10053800C03F7108C13F1608F000F1017008F100D2
:10054800F0017635A03E86008701700881074131A9
:100558007108813D7F31D4010130F0007008F60741
:1005680008002000A001A10120002035A03E86003F
:1005780087010030C03FC13F0130A0070030A13DD6
:100588002108803AF40080307402031DCD2A2130FE
:100598002002031CD02AD12AB82AF6012000D20151
:1005A8000800CF3020009B051B083F3980389B008E
:1005B8001B1532001B179B122000111079089A0096
:1005C80078089900210011140B178B170800F40004
:1005D800F62A32001B17FE2A32001B13FE2A3200AD
:1005E8001B13FE2A7408683A0319ED2A043A031902
:1005F800F02AF32A080032001117111591149217E6
:10060800121513179316931414179414141694169A
:100618009516951496141615161408002000A000B7
:100628002035A03E860087012035A23E8400850142
:10063800403F0002F4000131413F003BF500080053
:10064800F03020009805171618081F394038980010
:10065800B8309600B8309500210090160B178B170C
:1006680008000130F00070082000D407540803196E
:100678003E2B3F2B452B8331EE2383312000D201C3
:10068800D20A0800F5007508F40074082000D100AB
:100698008331D52383318331AD2383318331E32300
:1006A80083310800F1007108F00070082000D100C3
:1006B8008331DA2383318331BD2383318331E723C7
:1006C8008331080020005603031D6B2B6C2B702B05
:1006D8008331A4238331732B83318823833108002A
:1006E80022000C1121000C1022000C102000D60151
:1006F800D60A0800210010168B1727009214210033
:100708008C1423008C10080022000C1121000C10FE
:1007180022000C102000D601D60A080022000C1571
:1007280021000C1022000C142000D6010800210022
:100738000C1122000C1521000C1022000C140800CA
:1007480022000C1521000C1022000C142000D601E8
:10075800080020001B1079089A00780899001B14DB
:10076800080022000C1121000C142000D601D60A22
:10077800080020001B1079089A00780899001B14BB
:100788000800640080010131890BC62B0034320057
:100798009F016030990008007508F9007408F80096
:1007A80008002000CE01CF01D00108002000CE01B2
:1007B800CF01D001080020009B111B100800200069
:1007C8009B151B14080020009B151B140800200013
:0E07D80052080800200097130800FF347F34F9
:020000040001F9
:08000E00EC1F333FFF1FFF3F11
:00000001FF
