:020000040000FA
:020000002728AF
:100008007E1480314E018F1E0A280B282528863140
:1000180054268031F5007508F00042011908853131
:10002800742580314001180CF500750C0139F50074
:100038000130F506F50DF50D18087506FB3975063E
:1000480098007E1009002828F601F701F801F90147
:10005800FA01A030840000308500263086314E2613
:1000680080312030840001308500423086314E26B0
:1000780080317E104001062D4001C8003B08CF00AA
:100088003C08D0003D08D1003E08D2003F08D3000C
:100098004008D4004108D5004208D6004F308600F9
:1000A80000308700473FC300C31B5B285D28013031
:1000B8005E2800304001C400C5014408CD00450851
:1000C800CE004D084E0403196A286B288928CF09E9
:1000D800D009D109D209D309D409D509D609CF0A3B
:1000E800031D8928D00A031D8928D10A031D8928E0
:1000F800D20A031D8928D30A031D8928D40A031D9F
:100108008928D50A031D8928D60AF71B8C288D282B
:100118009128FD30F805FF30F9057708803A40014D
:10012800C30080304302031D9B2801307602031868
:100138009E289F28A52801304001C9000030CA0028
:10014800AA2877084001CA007608C9004101230897
:100158004001CC00410122084001CB004D084E046B
:10016800031DB728B828BC28781DBB28BC28C02880
:10017800FF30CB07FF30CC3D1F30D7000030D80010
:100188004101C5012F29FF304001D707FF30D83D75
:100198000A30A000A101A201A301A401A501A601A2
:1001A800A7014F08A8005008A9005108AA00520842
:1001B800AB005308AC005408AD005508AE00560813
:1001C800AF008231A722803140012108B400200805
:1001D800B3008531CE25803140013308303EC3005D
:1001E8005708A63E8600870143088100FF30C907EB
:1001F800FF30CA3DFF30CB07FF30CC3D0A30A000AE
:10020800A101A201A301A401A501A601A7014F080C
:10021800A8005008A9005108AA005208AB005308CA
:10022800AC005408AD005508AE005608AF00813147
:10023800A221803140012008CF002108D0002208E7
:10024800D1002308D2002408D3002508D4002608AA
:10025800D5002708D60040015808803AC3008030EE
:100268004302031D392901305702031C3C293D294B
:10027800692940014F08500451045204530454049E
:1002880055045604031D49294A29C7284A08803AB3
:10029800C30080304302031D53290130490203186B
:1002A80056295729C72840014C08803AC300803096
:1002B8004302031D612901304B02031C642965298F
:1002C8006929F81868296929C72840014D084E048A
:1002D800031D6F2970297429781D732974298F29A2
:1002E800FF30D707FF30D83D4D084E04031D7D2948
:1002F8007E2983292B30C6000030C70087292D307E
:10030800C6000030C7004608C3005708A63E86004E
:100318008701430881005708A63EC3004308B2007E
:100328004C08B4004B08B300480884316F2480316E
:1003380040013308BC003208BB0008004001B2018C
:100348002030860000308700473FB000B01FAD293D
:10035800AE29D0294001A009A109A209A309A4092D
:10036800A509A609A709A00A031DCD29A10A031DED
:10037800CD29A20A031DCD29A30A031DCD29A40A4C
:10038800031DCD29A50A031DCD29A60A031DCD29C4
:10039800A70A4001B201B20A28308600003087005F
:1003A800473F4001B000B01FDA29DB29FF2940018F
:1003B800A809A909AA09AB09AC09AD09AE09AF0991
:1003C800A80A031DFA29A90A031DFA29AA0A031D66
:1003D800FA29AB0A031DFA29AC0A031DFA29AD0A4A
:1003E800031DFA29AE0A031DFA29AF0A013040019C
:1003F800B0003008B206333086000030870008307D
:100408004001B00000301E00B00B072A200821046C
:100418002204230424042504260427040319152A86
:10042800162A722AB101B10A252AA035A10DA20DFA
:10043800A30DA40DA50DA60DA70D0130B000300821
:10044800B107A71F282A292A192AB335B40DB50DD3
:10045800B60DB70DB80DB90DBA0D27082F02031D3B
:100468004F2A26082E02031D4F2A25082D02031D98
:100478004F2A24082C02031D4F2A23082B02031D90
:100488004F2A22082A02031D4F2A21082902031D88
:100498004F2A20082802031C522A532A642A2008BB
:1004A800A8022108A93B2208AA3B2308AB3B240841
:1004B800AC3B2508AD3B2608AE3B2708AF3B3314C1
:1004C800A736A60CA50CA40CA30CA20CA10CA00C7E
:1004D8000130B102031D712A722A292A3208031930
:1004E800762A772A952AB309B409B509B609B7094E
:1004F800B809B909BA09B30A031D952AB40A031D34
:10050800952AB50A031D952AB60A031D952AB70A26
:10051800031D952AB80A031D952AB90A031D952AB1
:10052800BA0A40013308A0003408A1003508A20027
:100538003608A3003708A4003808A5003908A60023
:100548003A08A70008004001B201283086000030B0
:100558008700473FB000B01FB22AB32AD52A40010E
:10056800A809A909AA09AB09AC09AD09AE09AF09DF
:10057800A80A031DD22AA90A031DD22AAA0A031D02
:10058800D22AAB0A031DD22AAC0A031DD22AAD0A0D
:10059800031DD22AAE0A031DD22AAF0A4001B201B6
:1005A800B20A2030860000308700473F4001B00083
:1005B800B01FDF2AE02AFF2A4001A009A109A209E9
:1005C800A309A409A509A609A709A00A031DFF2ACA
:1005D800A10A031DFF2AA20A031DFF2AA30A031D5D
:1005E800FF2AA40A031DFF2AA50A031DFF2AA60A3B
:1005F800031DFF2AA70A400120082104220423041E
:10060800240425042604270403190B2B0C2B5F2B29
:10061800B101B10A1B2BA035A10DA20DA30DA40D8C
:10062800A50DA60DA70D0130B0003008B107A71F12
:100638001E2B1F2B0F2B27082F02031D3D2B2608CF
:100648002E02031D3D2B25082D02031D3D2B2408DA
:100658002C02031D3D2B23082B02031D3D2B2208D2
:100668002A02031D3D2B21082902031D3D2B2008CA
:100678002802031C402B412B512B2008A8022108DB
:10068800A93B2208AA3B2308AB3B2408AC3B25081E
:10069800AD3B2608AE3B2708AF3BA736A60CA50CFA
:1006A800A40CA30CA20CA10CA00C0130B102031DD8
:1006B8005E2B5F2B1F2B32080319632B642B822BB5
:1006C800A809A909AA09AB09AC09AD09AE09AF097E
:1006D800A80A031D822BA90A031D822BAA0A031D3F
:1006E800822BAB0A031D822BAC0A031D822BAD0A99
:1006F800031D822BAE0A031D822BAF0A4001280876
:10070800A0002908A1002A08A2002B08A3002C0891
:10071800A4002D08A5002E08A6002F08A700080091
:100728004001E800590886008701403FDB00413F4F
:10073800DC005B0884005C0885001200253A031D74
:10074800A62BA72B4B2C590886008701013081075F
:1007580041310318810A4101A201A301F801F901FD
:10076800FF30F600FF30F700400159088600870186
:10077800403FDB00413FDC005B0884005C088500EB
:100788001200643A0319C92BCA2BDB2B59088600BF
:100798008701403FDB00413FDC005B0884005C08C8
:1007A80085001200693A031DDA2BDB2B162C590839
:1007B800860087010130810741310318810A5A08F0
:1007C8008600870101088400850102308107003F07
:1007D800DB00013FDC005B08E0005C08E100890DFC
:1007E800893B8909E200E300E400E500E600E70050
:1007F8006008BB006108BC006208BD006308BE0059
:100808006408BF006508C0006608C1006708C20028
:10081800680880314020833140013C08DA003B08F9
:10082800D9006E2C590886008701403FDB00413F04
:10083800DC005B0884005C0885001200253A031D73
:10084800262C272C402C5908860087010130810767
:1008580041310318810A2530A2000030A30068083E
:10086800DB005B08A4008431C524833101304001DA
:10087800D9000030DA006E2C590886008701013053
:10088800810741310318810AD901DA016E2C590810
:1008980086008701403FDB00413FDC005B088400A5
:1008A8005C0885000008DD00DE015D08A2005E0826
:1008B800A3006808DF005F08A4008431C5248331E1
:1008C800400159088600870101308107413103182A
:1008D800810A3A2C08004001BA00781C742C752C47
:1008E8007D2C3A08B5003508AA0032088531A625BE
:1008F80084314001B41B812C822C872C3408B90028
:100908003308B800892CB801B901B601B7019D2C8C
:1009180020304001A2000030A3003A08B500350895
:10092800A4008431C524843101304001B607003069
:10093800B73D3708803AB5003908803A3502031DBB
:10094800A72C38083602031CAA2CAB2C8C2C781840
:10095800AE2CAF2CB82C40013A08B5003508AA00D7
:1009680032088531A6258431400132088531EA25CF
:100978008431400138082007B2003908213DB3000E
:100988000800400124080319CA2CCB2CD02C2408B9
:10099800031DCF2CD02CD52C220886314726843134
:1009A800052D2408033E860087011600010403195B
:1009B800DE2CDF2CFC2C2408033E86008701403FF8
:1009C800A500413FA600240A86008701403FA700F2
:1009D800413FA8002808803AA9002608803A290241
:1009E800031DF82C250827020318FB2CFC2C052DC9
:1009F8004001240A8600870101308107413103182C
:100A0800810A08000B1305305101930060308D00F6
:100A180086312C2685314001121118110B30410105
:100A2800D5002630D4005D30890B182DD40B182D35
:100A3800D50B182D00321A304101C9008630CA0082
:100A48000A30CB000030CC008631042685314001C5
:100A5800180C4101D400540C0139D4000130D406DB
:100A6800D40DD40D4001180841015406FB39540631
:100A780040019800122D27284101C60040016A084C
:100A88004101C800400169084101C700A001A10156
:100A9800632DC7304001EC006C08D9006B08ED00ED
:100AA8006D08DA00410146088331942385314001FD
:100AB80059084101A00740015A084101A13D4708D2
:100AC8008400480885001200031D6B2D6C2D4D2DE8
:100AD80021084001EA00410120084001E90008001E
:100AE800F3007008403E8600013087000108013E8F
:100AF8003F39F1007108F4007008413E860001306A
:100B0800870001087406031D8A2D8B2D8C2DA52DB9
:100B18007408F1007008403E8600013087007108B3
:100B280081007308F1007008403E8600013087009C
:100B380001087007F200720886000130870071080A
:100B4800810008004001B100AF01B001BE2D2E08A0
:100B5800AB00AC012B08A2002C08A3002A08AD00AA
:100B68002D08A4008431C524853101304001AF0728
:100B78000030B03D2F083107AB002B0886008701F5
:100B88000108AC002C08AE002E08031DCC2DCD2D7D
:100B9800AB2D080040013408803AB500803035029A
:100BA800031DD82D013033020318DB2DDC2DE92D70
:100BB80040013309B5003409B600B50A0319B60A6D
:100BC8003508B3003608B400E92D08004001A40038
:100BD8002408A2002208A300F52D0130A200220853
:100BE800A4072408860087010108031DFC2DFD2D9C
:100BF800F12D23082402A000A101A01BA1030800D5
:100C0800CB304001EE006E084101CF004A08400198
:100C1800EA00410149084001E900CF30EE006E08C2
:100C2800EB000030853140258631080050346934A6
:100C38007A347A3461342034543469346D34653408
:100C4800783425346434213420340A340D340034A3
:100C58000F307E01900042019E161E129D177E01E4
:100C6800381042011E119F1119309B0008004001E5
:100C7800A0004E010F1E412E422E3D2E400120089D
:100C880042019A0008004001A100210886313B2654
:100C980086310800640080010131890B4F2E003431
:040CA80020300800F0
:020000040001F9
:0A000E00EF3EFF3F9F3FFF3FFF3F23
:00000001FF
