:020000040000FA
:020000002328B3
:100008007E1480314E010C1E0A280B2818287E0108
:10001800BF104E010C124B019E1B132814281528E3
:100028009E178131D32180314E018C1E1C281D283A
:1000380021288C128231532280317E100900242815
:10004800F801F901FA014001D501D601D701D8011B
:10005800D901A030840000308500423082316C2202
:1000680080312030840001308500443082316C2298
:1000780080317E10400178292A30860000308700C0
:1000880020304001A80000301E00A80B4828CA01F3
:1000980000308131A721803140012308CE00220899
:1000A800CD000A304E028D3003194D02031C5D2825
:1000B8005E2802290F304E02D23003194D02031870
:1000C8006628672802290130CB000030CC004001A7
:1000D8004B088131A721803140012308CE00220836
:1000E800CD0000304E02FB3003194D02031C7D2861
:1000F8007E288D2801304E02773003194D020318EF
:10010800862887288D284B08FF3E2A3E86008701CF
:10011800810101304E02F53003194D02031C952868
:100128009628A62802304E02EE3003194D02031815
:100138009E289F28A6284B08FF3E2A3E8600870156
:100148008101810A0130CB070030CC3D4C08803A50
:10015800A80080302802031DB32821304B02031C5D
:10016800B628B7286B2840014908A8002808CA07FC
:100178004835A8002808CA074708A8000130A8354C
:10018800FF3E031DC3282835A9002908CA074608C9
:10019800A8000230A835FF3E031DCE282835A90047
:1001A8002908CA074508A8000330A835FF3E031DE3
:1001B800D9282835A9002908CA074408A800043006
:1001C800A835FF3E031DE4282835A9002908CA07D9
:1001D8004308A8000530A835FF3E031DEF28283541
:1001E800A9002908CA074208A8000630A835FF3E1A
:1001F800031DFA282835A9002908CA074A08080053
:10020800F400F501F6013A294001180CF300730CCB
:100218000139F3000130F306F30DF30D18087306E6
:10022800FB3973069800A330F3005530890B1A295F
:10023800F30B1A2900004001180CF300730C013964
:10024800F3000130F306F30DF30D18087306FB39BC
:1002580073069800A330F3005530890B3129F30B4E
:10026800312900000130F5070030F63D7608803A64
:10027800F30080307302031D432974087502031CC0
:100288004629472908290800F700542901308131F7
:100298000421813177290230813104218131772984
:1002A80077084001A000A1012108003A03195D293F
:1002B800772920089F3A03197729303A03197729B3
:1002C800183A03197729083A03194F29603A03198C
:1002D8007729303A03197729183A03197729083A00
:1002E80003194A297729080082317722813182311E
:1002F800622281318231442281318131FF21813171
:100308008231722281316300000082317E22813184
:10031800003A03199029912989298B1380314020AB
:1003280081314001D3005308D40054088131482159
:1003380081318131FF218131FA300032890BA129C5
:100348008B1787292328F7007735223E860001304E
:1003580087007708A13E8400850100084001A400B9
:10036800A5012408F3002508F400FF30F50000304B
:10037800F6008231222281317735203E8400013017
:100388008500003F73024001A600013F743BA700AF
:10039800403F2607A200413F273DA30008004B012C
:1003A8001C08F000F1017935203E860001308700F5
:1003B8007008C03F7108C13F1D08F000F1017008C6
:1003C800F100F0017935203E860001308700700881
:1003D800810741317108813D7F317A08F000790841
:1003E800A03E8600870170088100FA010130F00004
:1003F8007008F9070800F401F5017435203E8600FD
:10040800013087000030C03FC13F7408A03E86001D
:10041800870181010130F4070030F53D7508803A05
:10042800F30080307302031D1B2A21307402031C61
:100438001E2A1F2A012AF901F80108004001A0011B
:10044800A101731C282A292A2E2A75084001A00711
:100458007608A13D0130F535F60D890B2F2A0130BC
:10046800F436F30C890B342A73087404031D3D2AEF
:100478003E2A252A40012108F4002008F30008003C
:10048800F0304B019F051E161F081F3940389F008A
:100498009D019C014E0196160B178B170800013021
:1004A800F0007008FA077A0803195B2A5C2A612AA7
:1004B80082317B228231F801F80A08004E011616B3
:1004C8008B177E01BE14400192147E01B8100800FB
:1004D800640080010131890B6D2A003451019301B8
:1004E80060308D00080040011211181108004B01FE
:0804F8009E13080078080800BB
:020000040001F9
:0A000E00F81FFF3F9F3FFF3FFF3F39
:00000001FF
