:020000040000FA
:020000002028B6
:100008007E1480314E010C1E0A280B281E287E0102
:100018003F124E010C124001180CF000700C01390F
:10002800F0000130F006F00DF00D18087006FB39ED
:10003800700698007E1009002128FC0120308400F9
:10004800003085002A3081317D218031A030840044
:1000580000308500423081317D2180317E104001A1
:100068001829FB0040014A0886008701403FCC0060
:10007800413FCD004C0884004D0885001200253A08
:10008800031D472848288D284A0886008701013023
:10009800810741310318810AC201C301C601C701A2
:1000A800FF30C400FF30C5004A0886008701403F82
:1000B800CC00413FCD004C0884004D08850012005B
:1000C800253A031D6828692882284A08860087017E
:1000D8000130810741310318810A2530F3000030CF
:1000E800F4007B08CC004C08F5008031B120803149
:1000F80001304001CA000030CB00B0284A08860011
:1001080087010130810741310318810ACA01CB01F7
:10011800B0284A0886008701403FCC00413FCD0007
:100128004C0884004D0885000008CE00CF014E0819
:10013800F3004F08F4007B08D0005008F500803128
:10014800B120803140014A088600870101308107CB
:1001580041310318810A7C28080075080319B5285D
:10016800B628BB287508031DBA28BB28C028730801
:10017800813183218031EF287508033E860087018D
:10018800160001040319C928CA28E7287508033E80
:1001980086008701403FF600413FF700750A860058
:1001A8008701403FF800413FF9007908803AFA009A
:1001B8007708803A7A02031DE32876087802031844
:1001C800E628E728EF28750A8600870101308107AD
:1001D80041310318810A08004001D6005208D800AE
:1001E8005108D700C001C1010A295730D40054086A
:1001F800CA005308D5005508CB0056088031352071
:10020800803140014A08C0074B08C13D57088400A7
:10021800580885001200031D12291329F9284108DE
:10022800D2004008D1000800053051019300603029
:100238008D008131642181318131892181314001F1
:10024800121118110B304001E4002630E3005D3034
:10025800890B2C29E30B2C29E40B2C2900323D3087
:100268004001D9008130DA008131522181313B29A6
:10027800202845346E3474346534723469346E34ED
:10028800673420347734683469346C3465342834FE
:100298003134293420340A340D3400345B304001C1
:1002A800DB005B08DE005A08D2005908D1005E3036
:1002B800DB005B08D30000308031F020813108007A
:1002C8000F307E01900042019E161E129D177E017E
:1002D800381042011E119F1119309B000800F100CF
:1002E8004E010F1E782979297429710842019A0054
:1002F8000800640080010131890B7E290034F20076
:10030800720881317321813108004E0199160B174B
:040318008B17080037
:020000040001F9
:0A000E00EF3EFF3F9F3FFF3FFF3F23
:00000001FF
