:020000040000FA
:020000003228A4
:100008007E1480314E010C1E0A280B2827287E01F9
:10001800BF104E010C124001180CF100710C01398F
:10002800F1000130F106F10DF10D18087106FB39E8
:100038007106980044010E182228232824280E143B
:1000480082313F2280314E01101C2B282C28302869
:1000580010108231592280317E1009003328FA01AC
:10006800FB01613084000030850008308231832232
:100078008031A030840000308500443082318322F2
:100088008031203084000130850044308231832261
:1000980080317E104001AC294001D7010030813108
:1000A8000A21803140012508DB002408DA002A30C3
:1000B8005B02313003195A02031C6328642808299B
:1000C8003F305B02483003195A0203186C286D2828
:1000D80008290130D8000030D90040015808813182
:1000E8000A21803140012508DB002408DA000330AA
:1000F8005B02E93003195A02031C832884289328D9
:1001080005305B02DC3003195A0203188C288D284D
:1001180093285808FF3E373E860087018101073043
:100128005B02D13003195A02031C9B289C28AC2877
:100138000B305B02B83003195A020318A428A5280B
:10014800AC285808FF3E373E860087018101810AA6
:100158000130D8070030D93D5908803AB5008030C1
:100168003502031DB92821305802031CBC28BD28BC
:10017800712840015608B5003508D7075535B50030
:100188003508D7075408B5000130B535FF3E031DC3
:10019800C9283535B6003608D7075308B5000230E8
:1001A800B535FF3E031DD4283535B6003608D707C8
:1001B8005208B5000330B535FF3E031DDF2835353D
:1001C800B6003608D7075108B5000430B535FF3EEC
:1001D800031DEA283535B6003608D7075008B5009C
:1001E8000530B535FF3E031DF5283535B600360810
:1001F800D7074F08B5000630B535FF3E031D002967
:100208003535B6003608D707570808004001B4004E
:100218003435A03E86008701403FA600413FA70035
:100228002608A8002708A900AA01AB013435A23E78
:1002380086008701403FAC00413FAD002C08AE006E
:100248002D08AF00B001B1013435223E86000130DF
:100258008700403FB200413FB3003208F200330844
:10026800F300F401F5010030F9000030F800FF3028
:10027800F700FF30F6008131E42181317208400136
:10028800AE077308AF3D7408B03D7508B13D280846
:10029800AE022908AF3B2A08B03B2B08B13B04301B
:1002A800B136B00CAF0CAE0C890B54292F08A50041
:1002B8002E08A4000800F5008929613082317922CE
:1002C8008131AB296230823179228131AB296330A7
:1002D800823179228131AB296430823179228131AE
:1002E800AB296530823179228131AB296630823180
:1002F80079228131AB296730823179228131AB296A
:100308006830823179228131AB297508F300F40114
:100318007408003A03199129AB2973089F3A031905
:100328007029303A03197A29183A03198429083AA6
:1003380003196629603A03196B29303A031975299C
:10034800183A03197F29083A03196129AB290800CB
:1003580082316D2281318231892281314001180C2C
:10036800E000600C0139E0000130E006E00DE00D2E
:1003780018086006FB396006980006304001E00066
:100388005030890BC529E00BC52900004001180C25
:10039800E000600C0139E0000130E006E00DE00DFE
:1003A80018086006FB396006980006304001E00036
:1003B8005030890BDD29E00BDD290000B2293228F5
:1003C80000304001A3000030A2000030A10000303E
:1003D800A000721CF029F129FA2976084001A0072B
:1003E8007708A13D7808A23D7908A33D0130F6358C
:1003F800F70DF80DF90D890BFB290130F536F40CD2
:10040800F30CF20C890B022A750874047304720445
:10041800031D0F2A102AED2940012308F5002208A0
:10042800F4002108F3002008F2000800F301F401A9
:100438007335A03E860087010030C03FC13F733549
:10044800203E8600013087000030C03FC13F0130A8
:10045800F3070030F43D7408803AF20080307202ED
:10046800031D382A21307302031C3B2A3C2A1C2A0C
:10047800FB01FA0108007B35A03E86008701440194
:100488000C08C03F0D08C13F7B35203E8600013077
:10049800870040016708C03F6808C13FE701E801DD
:1004A8000130F0007008FB07080001304001E70741
:1004B8000030E83D00306802053003196702031C6C
:1004C800662A672A6C2A82318D228231FA01FA0A59
:1004D80008005101901F712A722A6D2A70308D0010
:1004E8000F1E772A782A742A0800F2004E010F1E80
:1004F8007E2A7F2A7A2A720842019A00080064003C
:1005080080010131890B842A00344001121118112D
:0C051800080044010E1008007A080800DA
:020000040001F9
:0A000E00F83FFF3F9F3FFF3FFF3F19
:00000001FF
