:020000040000FA
:02000000432893
:100008007E1480312000101E0A280B281F2801307A
:10001800F3007308D6002700931020001012971BD6
:10002800162817281C28B830960015309500971701
:100038008231002280312000111C232824283828EE
:1000480011108331362380317708031D2C282D2881
:1000580030288231422280317703031D3428352825
:1000680038288231DF2280312000901E3C283D282C
:10007800412890128231BE2280317E100900442826
:10008800833165238031F800833166238031F9009C
:10009800F601F7014F3084000030850008308331C5
:1000A8003E238031A0308400003085004430833105
:1000B8003E23803120308400013085002030833198
:1000C8003E2380317E102000C02925308600003074
:1000D800870020302000A30000301E00A30B7128E9
:1000E800C501003082319B22803120002108C800E0
:1000F8002008C7000A3048028D3003194702031C44
:100108008628872820290F304802D2300319470251
:1001180003188F2890282029C601C60A460882316C
:100128009B22803120002108C8002008C700003029
:100138004802FB3003194702031CA328A428B3284C
:10014800013048027730031947020318AC28AD285C
:10015800B3284608FF3E253E86008701810101300D
:100168004802F53003194702031CBB28BC28CC28D9
:1001780002304802EE30031947020318C428C52884
:10018800CC284608FF3E253E860087018101810A6A
:100198000130A3002308C60721304602031CD528D6
:1001A800D62892284408A3002308C5074335A3008E
:1001B8002308C5074208A3000130A335FF3E031DED
:1001C800E1282335A4002408C5074108A30002300C
:1001D800A335FF3E031DEC282335A4002408C507DA
:1001E8004008A3000330A335FF3E031DF72823353D
:1001F800A4002408C5073F08A3000430A335FF3E28
:10020800031D02292335A4002408C5073E08A300BE
:100218000530A335FF3E031D0D292335A40024080E
:10022800C5073D08A3000630A335FF3E031D182966
:100238002335A4002408C507450808002000A000AD
:100248009F298331532381318231ED228131BF29A6
:1002580083310B238131833153238131BF2982318B
:10026800ED228131F701FF30F4007F30F500833152
:10027800492381316C3082317422813101308231DD
:10028800CF228131BF298231ED228131F701FF3040
:10029800F4007F30F5008331492381316C3082319D
:1002A8007422813104308231CF228131BF298231D9
:1002B800ED228131F701FF30F4007F30F500833102
:1002C800492381316C308231742281310630823188
:1002D800CF228131BF298231ED228131F701FF30F0
:1002E800F4007F30F5008331492381316C3082314D
:1002F8007422813108308231CF228131BF29833184
:100308002E238131BF298231ED228131BF299930D5
:10031800F400F930F500833149238131F701F70AF8
:1003280083312623813168308231742281318331CF
:1003380057238131BF2920081F3A03198729203AFA
:1003480003194729703A03198B29103A03196F29A1
:10035800303A03198329103A03192C29E83A03196A
:100368002529283A03193329603A03195B29203AC9
:1003780003192529BF290800320098138331442323
:10038800813182318822813183314E238131833119
:10039800142381318231ED2281318231F72281317A
:1003A8008231AD22813182312222813182315E2235
:1003B80081316300200056080319E329E429DD2967
:1003C80083315F238131003A0319EB29EC29E429B1
:1003D8008B138031692081312000CD004D08CE007B
:1003E8004E0881312221813182312222813120003F
:1003F800D6018B17DD29432820001508F000F101EC
:100408007635A03E860087017008C03F7108C13F5D
:100418001608F000F1017008F100F0017635A03EF1
:10042800860087017008810741317108813D7F315D
:10043800D5010130F0007008F60708002000A0017F
:10044800A10120002035A03E860087010030C03F72
:10045800C13F0130A0070030A13D2108803AF400D7
:1004680080307402031D3A2A21302002031C3D2AE1
:100478003E2A252AF6012000D30108000130F000A9
:1004880070082000CF073C304F06031D4C2A4D2A28
:100498005D2A0130F0007008D00750085206031D8D
:1004A800562A572A5D2A83315B23823183311D23E3
:1004B80082310800CF3020009B051B083F39803867
:1004C8009B001B1532001B179B1220001110790886
:1004D8009A0078089900210011140B178B1708004F
:1004E800F4007F2A32001B17872A32001B13872A41
:1004F80032001B13872A7408683A0319762A043ACB
:100508000319792A7C2A0800320011171115911451
:10051800921712151317931693141417941414168C
:100528009416951695149614161516140800F400CA
:100538007435A03E860087017435A23E840085018B
:10054800403F00022000A0000131413F003BA100D4
:100558000800F03020009805171618081F39403891
:100568009800B830960015309500210090160B17AA
:100578008B1708000130F00070082000D5075508D7
:100588000319C72AC82ACE2A833162238231200060
:10059800D301D30A0800F5007508F4007408200098
:1005A800D20083314E238231833126238231833135
:1005B80057238231080020005703031DE42AE52A47
:1005C800E92A83311D238231EC2A833101238231C8
:1005D800080022000C1121000C1022000C10200031
:1005E800D701D70A0800210010168B17270092148C
:1005F80021008C1423008C10080022000C1121000B
:100608000C1022000C102000D701D70A0800220085
:100618000C1521000C1022000C142000D701080032
:1006280021000C1122000C1521000C1022000C14C2
:10063800080022000C1521000C1022000C142000C8
:10064800D701080020001B1079089A007808990043
:100658001B14080022000C1121000C142000D701E3
:10066800D70A080020001B1079089A00780899001A
:100678001B140800640080010131890B3F2B0034F2
:1006880032009F016030990008007508F90074086D
:10069800F80008002000CF01D001D1010800200097
:1006A8009B111B10080020009B151B14080020003C
:1006B8009B111B1008002000530808002000971306
:0606C8000800FF347F343E
:020000040001F9
:08000E00ECDF33FFFFDFFFFF11
:00000001FF
