:020000040000FA
:02000000432893
:100008007E1480312000101E0A280B281F2801307A
:10001800F3007308DC002700931020001012971BD0
:10002800162817281C28B830960015309500971701
:100038008231102280312000111C232824283828DE
:1000480011108331462380317708031D2C282D2871
:1000580030288231522280317703031D3428352815
:1000680038288231EF2280312000901E3C283D281C
:10007800412890128231CE2280317E100900442816
:10008800833179238031F80083317A238031F90074
:10009800833163238031DD00833164238031DE00C6
:1000A800833165238031DF00833166238031E000AE
:1000B800F601F7014F308400003085000E3083319F
:1000C8004E238031A03084000030850044308331D5
:1000D8004E23803120308400013085002030833168
:1000E8004E2380317E102000D02925308600003034
:1000F800870020302000A30000301E00A30B8128B9
:10010800C50100308231AB22803120002108C800AF
:100118002008C7000A3048028D3003194702031C23
:100128009628972830290F304802D2300319470201
:1001380003189F28A0283029C601C60A460882311C
:10014800AB22803120002108C8002008C7000030F9
:100158004802FB3003194702031CB328B428C328FC
:10016800013048027730031947020318BC28BD281C
:10017800C3284608FF3E253E8600870181010130DD
:100188004802F53003194702031CCB28CC28DC2889
:1001980002304802EE30031947020318D428D52844
:1001A800DC284608FF3E253E860087018101810A3A
:1001B8000130A3002308C60721304602031CE528A6
:1001C800E628A2284408A3002308C5074335A3004E
:1001D8002308C5074208A3000130A335FF3E031DCD
:1001E800F1282335A4002408C5074108A3000230DC
:1001F800A335FF3E031DFC282335A4002408C507AA
:100208004008A3000330A335FF3E031D072923350B
:10021800A4002408C5073F08A3000430A335FF3E07
:10022800031D12292335A4002408C5073E08A3008E
:100238000530A335FF3E031D1D292335A4002408DE
:10024800C5073D08A3000630A335FF3E031D282936
:100258002335A4002408C507450808002000A0008D
:10026800AF298331672381318231FD228131CF2942
:1002780083311B238131833167238131CF29823137
:10028800FD228131F701FF30F4007F30F500833122
:10029800592381316C30823184228131013082319D
:1002A800DF228131CF298231FD228131F701FF30F0
:1002B800F4007F30F5008331592381316C3082316D
:1002C8008422813104308231DF228131CF29823189
:1002D800FD228131F701FF30F4007F30F5008331D2
:1002E800592381316C308231842281310630823148
:1002F800DF228131CF298231FD228131F701FF30A0
:10030800F4007F30F5008331592381316C3082311C
:100318008422813108308231DF228131CF29833133
:100328003E238131CF298231FD228131CF29993075
:10033800F400F930F500833159238131F701F70AC8
:10034800833136238131683082318422813183318F
:100358006B238131CF2920084F3A03199B29183A7A
:1003680003197F29383A03195729103A03193529EF
:10037800F03A03199329183A03193529383A031919
:100388006B29603A03194329183A03199729283A1F
:1003980003193C29CF2908003200981383315423CC
:1003A800813182319822813183315E2381318331D9
:1003B800242381318231FD22813183310723813128
:1003C8008231BD22813182313222813182316E22E5
:1003D8008131630020005C080319F329F429ED2911
:1003E800833173238131003A0319FB29FC29F4294D
:1003F8008B138031792081312000CD004D08CE004B
:100408004E088131322181318231322281312000FE
:10041800DC018B17ED29432820001508F000F101B5
:100428007635A03E860087017008C03F7108C13F3D
:100438001608F000F1017008F100F0017635A03ED1
:10044800860087017008810741317108813D7F313D
:10045800DB010130F0007008F60708002000A00159
:10046800A10120002035A03E860087010030C03F52
:10047800C13F0130A0070030A13D2108803AF400B7
:1004880080307402031D4A2A21302002031C4D2AA1
:100498004E2A352AF6012000D90108000130F00063
:1004A80070082000D5073C305506031D5C2A5D2ADC
:1004B8006D2A0130F0007008D60756085806031D4B
:1004C800662A672A6D2A83316F23823183312D236F
:1004D80082310800CF3020009B051B083F39803847
:1004E8009B001B1532001B179B1220001110790866
:1004F8009A0078089900210011140B178B1708002F
:10050800F4008F2A32001B17972A32001B13972AF0
:1005180032001B13972A7408683A0319862A043A8A
:100528000319892A8C2A0800320011171115911411
:10053800921712151317931693141417941414166C
:100548009416951695149614161516140800F400AA
:100558007435A03E860087017435A23E840085016B
:10056800403F00022000A0000131413F003BA100B4
:100578000800F03020009805171618081F39403871
:100588009800B830960015309500210090160B178A
:100598008B1708000130F00070082000DB075B08AB
:1005A8000319D72AD82ADE2A8331762382312000FC
:1005B800D901D90A0800F5007508F400740820006C
:1005C800D80083315E2382318331362382318331EF
:1005D8006B238231080020006103031DF42AF52AE9
:1005E800F92A83312D238231FC2A83311123823168
:1005F800080022000C1121000C1022000C10200011
:10060800E101E10A0800210010168B172700921457
:1006180021008C1423008C10080022000C112100EA
:100628000C1022000C102000E101E10A0800220051
:100638000C1521000C1022000C142000E101080008
:1006480021000C1122000C1521000C1022000C14A2
:10065800080022000C1521000C1022000C142000A8
:10066800E101080020001B1079089A007808990019
:100678001B14080022000C1121000C142000E101B9
:10068800E10A080020001B1079089A0078089900F0
:100698001B140800640080010131890B4F2B0034C2
:1006A80032009F016030990008007508F90074084D
:1006B800F80008002000D501D601D70108000D3444
:1006C8000A340034003420009B111B10080020005D
:1006D8009B151B14080020009B111B10080020000C
:0E06E80059080800200097130800FF347F34E3
:020000040001F9
:08000E00ECDF33FFFFDFFFFF11
:00000001FF
