:020000040000FA
:0200000037289F
:100008007E1480312000101E0A280B281B2801307E
:10001800F3007308E3002700931020001012971BC9
:1000280016281728182897178231012280312000B6
:10003800111C1F282028272811108231E622803120
:100048008231732280312000141C2B282C282D2863
:100058001410901E30283128352890128231A4229D
:1000680080317E1009003828833125238031F8003B
:10007800833126238031F900F601F70158308400D6
:100088000030850010308231F5228031A0308400A4
:100098000030850042308231F522803120308400E2
:1000A8000130850044308231F52280317E102000F5
:1000B80021292D3086000030870020302000AB0039
:1000C80000301E00AB0B6528CD0100308131D521F1
:1000D800803120002508D1002408D0000A305102C0
:1000E8008D3003195002031C7A287B281F290F30F2
:1000F8005102D230031950020318832884281F297B
:100108000130CE000030CF0020004E088131D521CB
:10011800803120002508D1002408D0000030510289
:10012800FB3003195002031C9A289B28AA28013087
:1001380051027730031950020318A328A428AA28CB
:100148004E08FF3E2D3E8600870181010130510295
:10015800F53003195002031CB228B328C328023013
:100168005102EE30031950020318BB28BC28C328DB
:100178004E08FF3E2D3E860087018101810A01302D
:10018800CE070030CF3D4F08803AAB0080302B02BD
:10019800031DD02821304E02031CD328D4288828D8
:1001A80020004C08AB002B08CD074B35AB002B08C3
:1001B800CD074A08AB000130AB35FF3E031DE028F0
:1001C8002B35AC002C08CD074908AB000230AB3505
:1001D800FF3E031DEB282B35AC002C08CD07480843
:1001E800AB000330AB35FF3E031DF6282B35AC00C2
:1001F8002C08CD074708AB000430AB35FF3E031D84
:1002080001292B35AC002C08CD074608AB0005307A
:10021800AB35FF3E031D0C292B35AC002C08CD0750
:100228004508AB000630AB35FF3E031D17292B35BB
:10023800AC002C08CD074D08080032009813833114
:10024800002381318231FB228131833105238131C1
:1002580083310A2381318231D42281318231C5220E
:10026800813182312D22813182318E228131823158
:10027800EE22813183311723813163002000630826
:10028800031947294829412983311F238131003A1D
:1002980003194F29502948298B1380315D2081315A
:1002A8002000D6005608D7005708813168218131CF
:1002B80082312D2281312000E301FA300032890B8E
:1002C80062298B17412937282000A300852922009D
:1002D8000C1183310F238131A72922000C156D29B8
:1002E80022000C1101308231B5228131A7296430F6
:1002F8008131A8218131A72975308131A821813127
:10030800A7292308A100A2012208003A03198D2970
:10031800A72921089F3A0319A729303A0319A729C1
:10032800183A03198029083A03197129603A031900
:100338007429303A0319A729183A03197B29083A6E
:1003480003196B29A72908002000A000BE297608F8
:100358000319AF29B029CE290730F602CE291C305F
:1003680076020318B829B929CE290730F400740891
:10037800F607CE292008F400F5017508003A03199C
:10038800C629CE297408643A0319B329113A031906
:10039800AB29CE29220019087606E039760699009D
:1003A80008002000AA002A35223E86000130870076
:1003B8002A08A13E840085010008A600A701260896
:1003C800A0002708A100FF30A2000030A30082315E
:1003D8005322813120002A35203E840001308500D7
:1003E800003F2002A800013F213BA900403F280709
:1003F800A400413F293DA500080020001508F00091
:10040800F1017735203E8600013087007008C03F33
:100418007108C13F1608F000F1017008F100F00101
:100428007735203E8600013087007008810741310A
:100438007108813D7F316208F0007708A03E860090
:10044800870170088100E2010130F0007008F707A9
:1004580008002000A001A10120002035203E8600D0
:10046800013087000030C03FC13F2008A03E860011
:10047800870181010130A0070030A13D2108803AA1
:10048800F40080307402031D4B2A21302002031C23
:100498004E2A4F2A302AF7012000E0010800F40113
:1004A800F5012000201C592A5A2A5E2A2208F4073E
:1004B8002308F53D0130A235A30D890B5F2A0130D1
:1004C800A136A00C890B642A20082104031D6D2A7B
:1004D8006E2A552A7508A1007408A000080001308A
:1004E800F00070082000D8073C305806031D7D2A0C
:1004F8007E2A8D2A0130F0007008D90759085F0656
:10050800031D872A882A8D2A83311B2382312200E2
:100518000C150800CF3020009B051B083F39803898
:100528009B001B1532001B139B1220001110790829
:100538009A0078089900210011140B178B170800EE
:100548000130F00070082000E20762080319AD2AA4
:10055800AE2AB42A8331222382312000E001E00A46
:100568000800F5007508F40074082000DF008331E6
:10057800052382318231DE22823183311323823195
:100588000800F03020009805171618081F39403861
:10059800980096019501210090160B178B170800FB
:1005A800210010168B172700921421008C142300A9
:1005B8008C10080020001B1079089A007808990010
:1005C8001B14080020001B1079089A00780899006D
:1005D8001B140800220098139812F330980518107D
:1005E8000800640080010131890BF62A00342100DB
:1005F8000C1423000C14080032009F01603099008D
:1006080008002000D801D901DA01080021000C11E6
:1006180022000C15080020009B111B100800200068
:100628009B151B1408002200981798160800200034
:100638009B111B1008002000600808002000971379
:060648000800FF347F34BE
:020000040001F9
:08000E00ECDF33FFFFDFFFFF11
:00000001FF
