:020000040000FA
:020000003428A2
:100008007E1480314E010C1E0A280B2818287E0108
:10001800BF104E010C124B019E1B132814281528E3
:100028009E178131432180314E01101C1C281D2848
:100038001E281010121C21282228292812104401D9
:100048008C018D0182311E2280314E018C1E2D289B
:100058002E2832288C1282313D2280317E100900F0
:100068003528F801F901FA01533084000030850081
:10007800093082316C228031A03084000030850044
:10008800423082316C22803120308400013085007A
:10009800443082316C2280317E1040019A292A3006
:1000A80086000030870020304001A80000301E0084
:1000B800A80B5B28CA01003081311721803140012B
:1000C8002308CE002208CD000A304E028D300319D5
:1000D8004D02031C7028712815290F304E02D230AA
:1000E80003194D02031879287A2815290130CB0005
:1000F8000030CC0040014B0881311721803140018C
:100108002308CE002208CD0000304E02FB30031930
:100118004D02031C90289128A02801304E02773008
:1001280003194D02031899289A28A0284B08FF3E66
:100138002A3E86008701810101304E02F5300319FD
:100148004D02031CA828A928B92802304E02EE3017
:1001580003194D020318B128B228B9284B08FF3EED
:100168002A3E860087018101810A0130CB070030D1
:10017800CC3D4C08803AA80080302802031DC628D0
:1001880021304B02031CC928CA287E28400149088F
:10019800A8002808CA074835A8002808CA07470839
:1001A800A8000130A835FF3E031DD6282835A90030
:1001B8002908CA074608A8000230A835FF3E031DD3
:1001C800E1282835A9002908CA074508A8000330EE
:1001D800A835FF3E031DEC282835A9002908CA07C1
:1001E8004408A8000430A835FF3E031DF728283529
:1001F800A9002908CA074308A8000530A835FF3E0A
:10020800031D02292835A9002908CA074208A800A1
:100218000630A835FF3E031D0D292835A9002908F9
:10022800CA074A080800F7007735223E86000130E1
:1002380087007708A13E8400850100084001A400DA
:10024800A5012408F3002508F400FF30F50000306C
:10025800F6008131E42181317735203E8400013078
:100268008500003F73024001A600013F743BA700D0
:10027800403F2607A200413F273DA30008004B014D
:100288001C08F000F1017935203E86000130870016
:100298007008C03F7108C13F1D08F000F1017008E7
:1002A800F100F0017935203E8600013087007008A2
:1002B800810741317108813D7F317A08F000790862
:1002C800A03E8600870170088100FA010130F00025
:1002D8007008F9070800F5007729400118119929D5
:1002E8004001181599297508F300F4017408003ABB
:1002F80003197F29992973089F3A03199929303AD4
:1003080003199929183A03199929083A03197429DC
:10031800603A03199929303A03199929183A0319A7
:100328009929083A031971299929080040011811D7
:1003380051018C13823177228131823172228131CD
:1003480082310622813182317C22813182316222DE
:10035800813182312E2281318131C1218131823135
:100368004C2281318231572281318231832281317D
:10037800823180228131BF293428F401F501743596
:10038800203E8600013087000030C03FC13F74081E
:10039800A03E8600870181010130F4070030F53D59
:1003A8007508803AF30080307302031DDD2921307F
:1003B8007402031CE029E129C329F901F8010800A6
:1003C8004001A001A101731CEA29EB29F029750855
:1003D8004001A0077608A13D0130F535F60D890BDF
:1003E800F1290130F436F30C890BF62973087404EB
:1003F800031DFF29002AE72940012108F4002008ED
:10040800F30008004F0116171615961497171715BD
:1004180097171817981698141814991419159915E8
:10042800191699161A171A141A169B141B159B15C8
:100438001B1608004001180CF000700C0139F00080
:100448000130F006F00DF00D18087006FB39700643
:1004580098000800F0304B019F051E161F081F3931
:1004680040389F009D019C014E0196160B178B1773
:1004780008000130F0007008FA077A080319452AC5
:10048800462A4B2A823186228231F801F80A08006E
:10049800303044018E048E14F03091050E1505306D
:1004A8007D01920008000B3046018E0010308D004F
:1004B8008C010B178B174E011C1408004E011616E1
:1004C8008B177E01BE14400192147E01B8100800FB
:1004D800640080010131890B6D2A00344001121437
:1004E8007E01381408005101930160308D00080026
:1004F800400112111811080044010E1408004601A9
:0E0508008E1708004B019E13080078080800AB
:020000040001F9
:0A000E00F81F3F3F9F3FFF1FFF3F19
:00000001FF
