:040000008031232800
:100008007E14803120007F08F1000B1C1228270085
:1000180013100B100130F0007008F7002000911E3B
:100028001E280130F0007008F70023001908F000BE
:100038007008F80071082000FF007E100900803168
:100048002528F701F8017E10200080312B28803107
:100058004E20803180315820803121008C122200BE
:100068008C12770803193528F7017808613A031DBF
:100078003528F80122000C0EF600760C0139F6003E
:100088000130F606F60EF60D0C087606DF39760610
:100098008C00352823009E161E129D171D161E1152
:1000A8009F1119309B000800210091160B178B1720
:0200B80008003E
:020000040001F9
:04000E00E4FFFFFC10
:00000001FF
