:020000040000FA
:020000002728AF
:100008007E1480314E018F1E0A280B282528813145
:10001800BF218031F5007508F000420119088131CF
:10002800012180314001180CF500750C0139F500EB
:100038000130F506F50DF50D18087506FB3975063E
:1000480098007E10090028288131BB218031F600F4
:100058008131BC218031F700F80120308400003064
:1000680085002A308131B0218031A03084000030F1
:10007800850042308131B02180317E1040015629FF
:100088004001DB00540886008701403FD600413F0D
:10009800D70056088400570885001200253A031D2A
:1000A800562857289C285408860087010130810764
:1000B80041310318810AC201C301C601C701FF30DB
:1000C800C400FF30C500540886008701403FD600B1
:1000D800413FD70056088400570885001200253A8A
:1000E800031D772878289128540886008701013055
:1000F800810741310318810A2530CC000030CD003A
:100108005B08D6005608CE008031C020803101300F
:100118004001D4000030D500BF285408860087016C
:100128000130810741310318810AD401D501BF2864
:10013800540886008701403FD600413FD700560843
:100148008400570885000008D800D9015808CC0059
:100158005908CD005B08DA005A08CE008031C0206B
:100168008031400154088600870101308107413100
:100178000318810A8B28080040014E080319C52876
:10018800C628CB284E08031DCA28CB28D0284C08DF
:100198008131A921803100294E08033E860087015C
:1001A800160001040319D928DA28F7284E08033E57
:1001B80086008701403FCF00413FD0004E0A8600AD
:1001C8008701403FD100413FD2005208803AD30016
:1001D8005008803A5302031DF3284F0851020318B0
:1001E800F628F728002940014E0A860087010130C9
:1001F800810741310318810A0800F3007008403E66
:10020800860087010108013E3F39F1007108F400BA
:100218007008413E8600870101087406031D1529F0
:10022800162917292D297408F1007008403E860008
:100238008701710881007308F1007008403E86004C
:10024800870101087007F2007208860087017108AB
:10025800810008004001E1005D08E3005C08E2005D
:10026800C001C10148296230DF005F08D4005E0880
:10027800E0006008D50061088031442081314001E8
:100288005408C0075508C13D62088400630885000A
:100298001200031D5029512937294108DD00400863
:1002A800DC0008000B1305305101930060308D000D
:1002B80081318E2181318131B62181314001121184
:1002C80018110B304001EF002630EE005D30890B2D
:1002D8006B29EE0B6B29EF0B6B290032BD30400107
:1002E800E4008130E50081317C2181317A29272899
:1002F80066304001E6006608E9006508DD0064082C
:10030800DC006930E6006608DE00003081312E210D
:10031800813108000F307E01900042019E161E12A6
:100328009D177E01381042011E119F1119309B0044
:1003380008004001CA004E010F1EA329A4299F29C5
:1003480040014A0842019A0008004001CB004B08CE
:1003580081319D2181310800640080010131890BC0
:10036800B12900344E0199160B178B170800013478
:0A037800003461340034A0300800A6
:020000040001F9
:0A000E00EF3EFF3F9F3FFF3FFF3F23
:00000001FF
