:020000040000FA
:0200000037289F
:100008007E1480312000101E0A280B281B2801307E
:10001800F3007308E2002700931020001012971BCA
:1000280016281728182897178131C72180312000F2
:10003800111C1F282028272811108231BE22803148
:100048008231392280312000141C2B282C282D289D
:100058001410901E302831283528901282318D22B4
:1000680080317E10090038288231F2228031F80070
:100078008231F3228031F900F601F701583084000B
:10008800003085000F308231C6228031A0308400D4
:100098000030850042308231C62280312030840011
:1000A8000130850044308231C62280317E10200024
:1000B80021292D3086000030870020302000AB0039
:1000C80000301E00AB0B6528CD01003081319B212B
:1000D800803120002508D1002408D0000A305102C0
:1000E8008D3003195002031C7A287B281F290F30F2
:1000F8005102D230031950020318832884281F297B
:100108000130CE000030CF0020004E0881319B2105
:10011800803120002508D1002408D0000030510289
:10012800FB3003195002031C9A289B28AA28013087
:1001380051027730031950020318A328A428AA28CB
:100148004E08FF3E2D3E8600870181010130510295
:10015800F53003195002031CB228B328C328023013
:100168005102EE30031950020318BB28BC28C328DB
:100178004E08FF3E2D3E860087018101810A01302D
:10018800CE070030CF3D4F08803AAB0080302B02BD
:10019800031DD02821304E02031CD328D4288828D8
:1001A80020004C08AB002B08CD074B35AB002B08C3
:1001B800CD074A08AB000130AB35FF3E031DE028F0
:1001C8002B35AC002C08CD074908AB000230AB3505
:1001D800FF3E031DEB282B35AC002C08CD07480843
:1001E800AB000330AB35FF3E031DF6282B35AC00C2
:1001F8002C08CD074708AB000430AB35FF3E031D84
:1002080001292B35AC002C08CD074608AB0005307A
:10021800AB35FF3E031D0C292B35AC002C08CD0750
:100228004508AB000630AB35FF3E031D17292B35BB
:10023800AC002C08CD074D08080032009813823115
:10024800D12281318231CC22813182316A228131BD
:100258008231D62281318231DB2281318231AC2256
:10026800813182319D2281318131F3218131823185
:10027800542281316300200062080319442945296A
:100288003E298231EC228131003A03194C294D294B
:1002980045298B1380315D2081312000D600560816
:1002A800D70057088131652181318131F3218131AE
:1002B8002000E201FA300032890B5F298B173E29B2
:1002C80037282000A200782922000C118231E02270
:1002D80081319A2922000C156A2922000C1101305B
:1002E80082317D2281319A292208A000A1012108AA
:1002F800003A031980299A2920089F3A03199A2954
:10030800303A03199A29183A03199A29083A03190D
:100318006E29603A03197129303A03199A29183A53
:1003280003199A29083A031968299A29080020000C
:10033800AA002A35223E8600013087002A08A13EFD
:10034800840085010008A600A7012608A000270848
:10035800A100FF30A2000030A300823119228131B0
:1003680020002A35203E840001308500003F20020D
:10037800A800013F213BA900403F2807A400413FB6
:10038800293DA500080020001508F000F101763588
:10039800203E8600013087007008C03F7108C13FC9
:1003A8001608F000F1017008F100F0017635203EE2
:1003B8008600013087007008810741317108813D4E
:1003C8007F317708F0007608A03E86008701700824
:1003D8008100F7010130F0007008F60708002000DE
:1003E800A001A10120002035203E860001308700B1
:1003F8000030C03FC13F2008A03E86008701810130
:100408000130A0070030A13D2108803AF400803077
:100418007402031D112A21302002031C142A152AF4
:10042800F629F6012000E0010800F401F50120009A
:10043800201C1F2A202A242A2208F4072308F53D15
:100448000130A235A30D890B252A0130A136A00C55
:10045800890B2A2A20082104031D332A342A1B2A3F
:100468007508A1007408A00008000130F0007008A9
:100478002000D8073C305806031D432A442A532A33
:100488000130F0007008D90759085F06031D4D2A8E
:100498004E2A532A8231E822823122000C150800A4
:1004A800CF3020009B051B083F3980389B001B1567
:1004B80032001B139B122000111079089A0078084B
:1004C8009900210011140B178B170800320011171F
:1004D80011159114921712151317931693141417D4
:1004E8009414141694169516951496141615161435
:1004F8000800F5007508F40074082000DF00823158
:10050800D62282318231B62282318231E42282318E
:1005180008000130F0007008F70777080319952ADA
:10052800962A9C2A8231EF2282312000E001E00ADB
:100538000800F03020009805171618081F394038B1
:10054800980096019501210090160B178B1708004B
:10055800210010168B172700921421008C142300F9
:100568008C10080020001B1079089A007808990060
:100578001B14080020001B1079089A0078089900BD
:100588001B140800640080010131890BC72A00345C
:1005980021000C1423000C14080032009F01603065
:1005A800990008002000D801D901DA0108002100CB
:1005B8000C1122000C15080020009B111B100800CC
:1005C80020009B151B14080020009B111B1008001D
:1005D800200060080800200097130800FF347F34CB
:020000040001F9
:08000E00ECDF33FFFFDFFFFF11
:00000001FF
