:020000040000FA
:020000003228A4
:100008007E1480314E010C1E0A280B2827287E01F9
:10001800BF104E010C124001180CF100710C01398F
:10002800F1000130F106F10DF10D18087106FB39E8
:100038007106980044010E182228232824280E143B
:1000480082313E2280314E01101C2B282C2830286A
:1000580010108231582280317E1009003328FA01AD
:10006800FB016230840000308500083082319C2218
:100078008031A030840000308500443082319C22D9
:1000880080312030840001308500443082319C2248
:1000980080317E104001AC294001D7010030813108
:1000A8000A21803140012508DB002408DA002A30C3
:1000B8005B02313003195A02031C6328642808299B
:1000C8003F305B02483003195A0203186C286D2828
:1000D80008290130D8000030D90040015808813182
:1000E8000A21803140012508DB002408DA000330AA
:1000F8005B02E93003195A02031C832884289328D9
:1001080005305B02DC3003195A0203188C288D284D
:1001180093285808FF3E373E860087018101073043
:100128005B02D13003195A02031C9B289C28AC2877
:100138000B305B02B83003195A020318A428A5280B
:10014800AC285808FF3E373E860087018101810AA6
:100158000130D8070030D93D5908803AB5008030C1
:100168003502031DB92821305802031CBC28BD28BC
:10017800712840015608B5003508D7075535B50030
:100188003508D7075408B5000130B535FF3E031DC3
:10019800C9283535B6003608D7075308B5000230E8
:1001A800B535FF3E031DD4283535B6003608D707C8
:1001B8005208B5000330B535FF3E031DDF2835353D
:1001C800B6003608D7075108B5000430B535FF3EEC
:1001D800031DEA283535B6003608D7075008B5009C
:1001E8000530B535FF3E031DF5283535B600360810
:1001F800D7074F08B5000630B535FF3E031D002967
:100208003535B6003608D707570808004001B4004E
:100218003435A03E86008701403FA600413FA70035
:100228002608A8002708A900AA01AB013435A23E78
:1002380086008701403FAC00413FAD002C08AE006E
:100248002D08AF00B001B1013435223E86000130DF
:100258008700403FB200413FB3003208F200330844
:10026800F300F401F5010030F9000030F800FF3028
:10027800F700FF30F6008131E32181317208400137
:10028800AE077308AF3D7408B03D7508B13D280846
:10029800AE022908AF3B2A08B03B2B08B13B04301B
:1002A800B136B00CAF0CAE0C890B54292F08A50041
:1002B8002E08A4000800F5008929613082318822BF
:1002C8008131AB296230823188228131AB29633098
:1002D800823188228131AB29643082318822813190
:1002E800AB296530823188228131AB296630823171
:1002F80088228131AB296730823188228131AB294C
:100308006830823188228131AB297508F300F40105
:100318007408003A03199129AB2973089F3A031905
:100328007029303A03197A29183A03198429083AA6
:1003380003196629603A03196B29303A031975299C
:10034800183A03197F29083A03196129AB290800CB
:1003580005305101930060308D0082316C2281316B
:1003680082319222813182317B228131823119227C
:100378008131400112111811630000008231A52259
:100388008131003A0319C929CA29C229803150206C
:1003980081314001E0006008E100610881315F219E
:1003A80081318231192281311A304001E000F83060
:1003B800890BDC29E00BDC290000C0293228003039
:1003C8004001A3000030A2000030A1000030A000CE
:1003D800721CEF29F029F92976084001A00777084F
:1003E800A13D7808A23D7908A33D0130F635F70D07
:1003F800F80DF90D890BFA290130F536F40CF30CD8
:10040800F20C890B012A7508740473047204031D25
:100418000E2A0F2AEC2940012308F5002208F400CF
:100428002108F3002008F2000800F301F4017335F5
:10043800A03E860087010030C03FC13F7335203E93
:100448008600013087000030C03FC13F0130F3070C
:100458000030F43D7408803AF20080307202031DC7
:10046800372A21307302031C3A2A3B2A1B2AFB0134
:10047800FA0108007B35A03E8600870144010C087C
:10048800C03F0D08C13F7B35203E86000130870004
:1004980040016808C03F6908C13FE801E90101302F
:1004A800F0007008FB07080001304001E807003041
:1004B800E93D00306902053003196802031C652A0A
:1004C800662A6B2A8231A2228231FA01FA0A0800CE
:1004D8000F307E01900042019E161E129D177E016C
:1004E800381042011E119F1119309B000800CF30AF
:1004F80044018E058E141108F039023891004E011E
:100508001A140B178B170800F2004E010F1E8D2AC4
:100518008E2A892A720842019A0008004E0116168E
:100528008B177E01BE14400192147E01B81008009A
:10053800640080010131890B9D2A003444010E10AA
:0605480008007A0808001B
:020000040001F9
:0A000E00EF3FFF3F9F3FFF3FFF3F22
:00000001FF
