:020000040000FA
:020000002328B3
:100008007E1480314E010C1E0A280B2818287E0108
:10001800BF104E010C124B019E1B132814281528E3
:100028009E1781318B2180314E018C1E1C281D2882
:1000380021288C128131B82180317E1009002428B2
:10004800FB01FC012030840000308500283081311C
:10005800F9218031A03084000030850022308131C0
:10006800F92180317E1040013B294001EA01E90174
:1000780000308131A2218031F40074084001ED0084
:100088006D088131E52180312D3040016D02031C5E
:100098004E284F28EC2842306D0203185428552862
:1000A800EC281815A3300032890B5728003200328B
:1000B800400118110130EB000030EC0040016B08E2
:1000C8008131A2218031F40074084001ED0005302F
:1000D8006D02031C702871287D2806306D020318F4
:1000E800762877287D286B08FF3E483E86008701E2
:1000F800810109306D02031C8228832890280C3066
:100108006D0203188828892890286B08FF3E483E0E
:10011800860087018101810A0130EB070030EC3D40
:100128006C08803AF40080307402031D9D28213049
:100138006B02031CA028A128622840016708F4006C
:100148007408EA076635F4007408EA076508F400DD
:100158000130F435FF3E031DAD287435F5007508F0
:10016800EA076408F4000230F435FF3E031DB8289E
:100178007435F5007508EA076308F4000330F435B0
:10018800FF3E031DC3287435F5007508EA076208A9
:10019800F4000430F435FF3E031DCE287435F50015
:1001A8007508EA076108F4000530F435FF3E031DC1
:1001B800D9287435F5007508EA076008F400063098
:1001C800F435FF3E031DE4287435F5007508EA0789
:1001D8006A080800F400182961308131E52180316E
:1001E8003A2962308131E52180313A296330813101
:1001F800E52180313A2964308131E52180313A297D
:1002080065308131E52180313A2966308131E52137
:1002180080313A2967308131E52180313A296830C7
:100228008131E52180313A297408F200F30173081D
:10023800003A031920293A2972089F3A0319FF281E
:10024800303A03190929183A03191329083A0319E6
:10025800F528603A0319FA28303A03190429183A9C
:1002680003190E29083A0319F0283A2908008131A0
:10027800FF2181318131C92181318131EF218131E2
:100288008131D821813181316A21813163000000B7
:10029800823103228131003A0319532954294C2908
:1002A8008B13803139208131FA007A084001EE0041
:1002B8006E088031EE20813181316A2181310D3023
:1002C800890B642900008B174A292328F201F301BE
:1002D8007208203E8600870181017208A03E8600D0
:1002E800870181010130F2070030F33D7308803A3D
:1002F800F10080307102031D832921307202031C32
:10030800862987296C29FB014001C20108004B019D
:100318001C08F0007B08203E8600870170088100D9
:100328007C08F0007B08A03E8600870170088100E9
:10033800FC010130F0007008FB070800F3007308A7
:10034800213E860087017308203E8400850100084D
:10035800F1007308A13E840085010003FF3AF20012
:1003680071087202010708000130F0007008FC07EC
:1003780002307C02031CC129C229C8298231062205
:1003880081314001C201C20A08000F307E0190008D
:1003980042019E161E129D177E01381042011E1141
:1003A8009F1104309B000800F0304B019F051E127E
:1003B8001F081F3940389F004E0196160B178B17E0
:1003C8000800F1004E010F1EEA29EB29E629710801
:1003D80042019A0008004E0116168B177E01BE14C2
:1003E800400192147E01B8100800640080010131B8
:1003F800890BFA2900344001121118110800400134
:0A040800420808004B019E13080093
:020000040001F9
:0A000E00F81FFF3F9F3FFF3FFF3F39
:00000001FF
