:020000040000FA
:020000003428A2
:100008007E1480312000101E0A280B281B2801307E
:10001800F3007308DC002700931020001012971BD0
:1000280016281728182897178131B6218031200003
:10003800111C1F2820282428111082317922803190
:100048002000141C282829282A281410901E2D283E
:100058002E28322890128231602280317E100900C9
:100068003528F601F701F801F9015830840000300D
:1000780085000930823181228031A030840000302F
:100088008500423082318122803120308400013065
:10009800850044308231812280317E102000182969
:1000A8002D3086000030870020302000AB00003063
:1000B8001E00AB0B5C28CD01003081315E21803100
:1000C80020002508D1002408D0000A3051028D30C4
:1000D80003195002031C7128722816290F30510287
:1000E800D2300319500203187A287B2816290130C8
:1000F800CE000030CF0020004E0881315E218031D3
:1001080020002508D1002408D00000305102FB301F
:1001180003195002031C91289228A128013051028A
:1001280077300319500203189A289B28A1284E08F3
:10013800FF3E2D3E86008701810101305102F530D6
:1001480003195002031CA928AA28BA280230510210
:10015800EE30031950020318B228B328BA284E0803
:10016800FF3E2D3E860087018101810A0130CE07BE
:100178000030CF3D4F08803AAB0080302B02031D82
:10018800C72821304E02031CCA28CB287F2820000C
:100198004C08AB002B08CD074B35AB002B08CD071F
:1001A8004A08AB000130AB35FF3E031DD7282B357D
:1001B800AC002C08CD074908AB000230AB35FF3E38
:1001C800031DE2282B35AC002C08CD074808AB00EE
:1001D8000330AB35FF3E031DED282B35AC002C0852
:1001E800CD074708AB000430AB35FF3E031DF828A8
:1001F8002B35AC002C08CD074608AB000530AB35D5
:10020800FF3E031D03292B35AC002C08CD074508FC
:10021800AB000630AB35FF3E031D0E292B35AC0075
:100228002C08CD074D08080022000C113200981345
:1002380082318C22813182318722813182313E2282
:10024800813182319122813182316F228131823133
:10025800512281318131E22181318231272281315C
:10026800823196228131630020005C0803193D2900
:100278003E29372982319C228131003A03194529C8
:1002880046293E298B138031542081312000D60025
:100298005608D700570881318A2181318131E221FE
:1002A80081312000DC01FA300032890B58298B1784
:1002B800372934282000AA002A35223E860001303A
:1002C80087002A08A13E840085010008A600A7012E
:1002D8002608A0002708A100FF30A2000030A300D4
:1002E80082310722813120002A35203E84000130E6
:1002F8008500003F2002A800013F213BA900403FA4
:100308002807A400413F293DA50008002000A000BF
:10031800932922000C11B52922000C15B5292008B3
:10032800F400F5017508003A03199B29B5297408EA
:100338009F3A0319B529303A0319B529183A031910
:10034800B529083A03199029603A0319B529303AB2
:100358000319B529183A0319B529083A03198D293B
:10036800B529080020001508F000F1017735203E76
:100378008600013087007008C03F7108C13F160829
:10038800F000F1017008F100F0017735203E860099
:10039800013087007008810741317108813D7F3144
:1003A8007908F0007708A03E860087017008810070
:1003B800F9010130F0007008F70708002000A001DB
:1003C800A10120002035203E860001308700003042
:1003D800C03FC13F2008A03E86008701810101304F
:1003E800A0070030A13D2108803AF4008030740253
:1003F800031D002A21302002031C032A042AE529B0
:10040800F701F6010800F401F5012000201C0D2A6F
:100418000E2A122A2208F4072308F53D0130A235D6
:10042800A30D890B132A0130A136A00C890B182AB9
:1004380020082104031D212A222A092A7508A1005F
:100448007408A0000800CF3020009B051B083F3926
:1004580080389B001B1532001B139B1220009B1534
:1004680011107F309A00FF309900210011140B17EA
:100478008B170800320011171115911492171215D5
:100488001317931693141417941414169416951698
:1004980095149614161516140800F03020009805C7
:1004A800171618081F394038980096019501210041
:1004B80090160B178B1708000130F0007008F90729
:1004C80079080319682A692A6E2A823199228231A9
:1004D800F601F60A0800210010168B17270092145F
:1004E80021008C1423008C10080020001B107F3082
:1004F8009A00FF3099001B14080064008001013144
:10050800890B822A003421000C1423000C140800E3
:1005180032009F0160309900080021000C11220070
:100528000C11080020001B14080020009713080075
:040538007608080039
:020000040001F9
:08000E00ECDF33FFFFDFFFFF11
:00000001FF
