:040000008031232800
:100008007E14803120007F08F1000B1C1228270085
:1000180013100B100130F0007008F7002000911E3B
:100028001E280130F0007008F70023001908F000BE
:100038007008F80071082000FF007E100900803168
:100048002528F701F8017E10200080312B283E304A
:10005800F6007608210099048031532080318031E0
:100068005D20803121008C1222008C127708031940
:100078003A28F7017808613A031D3A28F801220066
:100088000C0EF600760C0139F6000130F606F60E75
:10009800F60D0C087606DF3976068C003A28230020
:1000A8009E161E129D171D161E119F1119309B00BA
:0C00B8000800210091160B178B170800A0
:020000040001F9
:04000E00E4F7FFFC18
:00000001FF
