:020000040000FA
:02000000432893
:100008007E1480312000101E0A280B281F2801307A
:10001800F3007308D7002700931020001012971BD5
:10002800162817281C28B830960015309500971701
:1000380082315E2280312000111C23282428382890
:1000480011108331962380317708031D2C282D2821
:1000580030288231A02280317703031D34283528C7
:10006800382883313F2380312000901E3C283D28CA
:100078004128901283311E2380317E1009004428C4
:100088008331C5238031F8008331C6238031F900DC
:10009800F601F701503084000030850008308331C4
:1000A8009E238031A03084000030850044308331A5
:1000B8009E23803120308400013085002030833138
:1000C8009E2380317E1020001E2A253086000030B5
:1000D800870020302000A30000301E00A30B7128E9
:1000E800C501C60100308231FB2280312000210881
:1000F800C9002008C8000A3049028D300319480297
:10010800031C872888286B290F304902D23003192D
:1001180048020318902891286B29C701C70A470885
:100128008231FB22803120002108C9002008C80044
:1001380000304902FB3003194802031CA428A528F3
:10014800B428013049027730031948020318AD2852
:10015800AE28B4284708FF3E253E86008701810166
:1001680001304902F53003194802031CBC28BD2898
:10017800CD2802304902EE30031948020318C52879
:10018800C628CD284708FF3E253E86008701810105
:10019800810A0130A3002308C70721304702031C46
:1001A800D628D72893284408A3002308C507433531
:1001B800A3002308C5074208A3000130A335FF3E6A
:1001C800031DE2282335A4002408C5074108A3001D
:1001D8000230A335FF3E031DED282335A400240873
:1001E800C5074008A3000330A335FF3E031DF828C8
:1001F8002335A4002408C5073F08A3000430A3350D
:10020800FF3E031D03292335A4002408C5073E0823
:10021800A3000530A335FF3E031D0E292335A40096
:100228002408C5073D08A3000630A335FF3E031D7B
:1002380019292335A4002408C5072C08A30023087E
:10024800C6072B35A3002308C6072A08A3000130D8
:10025800A335FF3E031D2C292335A4002408C60717
:100268002908A3000230A335FF3E031D3729233593
:10027800A4002408C6072808A3000330A335FF3EBE
:10028800031D42292335A4002408C6072708A30014
:100298000430A335FF3E031D4D292335A40024084F
:1002A800C6072608A3000530A335FF3E031D5829BD
:1002B8002335A4002408C6072508A3000630A33563
:1002C800FF3E031D63292335A4002408C6074608FA
:1002D800031D6F2970297229450873290030080009
:1002E8002000A000FD298331B323813183314D23C0
:1002F80081311D2A83316B2381318331B3238131CD
:100308001D2A83314D2381318331AE238131F70199
:10031800FF30F4007F30F5008331A92381316C3040
:100328008231D4228131023083312F2381311D2A39
:1003380083314D2381318331AE238131F701FF3081
:10034800F4007F30F5008331A92381316C3082318C
:10035800D4228131043083312F2381311D2A833106
:100368004D2381318331AE238131F701FF30F40011
:100378007F30F5008331A92381316C308231D4225A
:100388008131063083312F2381311D2A83314D235A
:1003980081318331AE238131F701FF30F4007F30A2
:1003A800F5008331A92381316C308231D422813127
:1003B800083083312F2381311D2A83318E238131E7
:1003C8001D2A83314D2381311D2A9930F400F930DB
:1003D800F5008331A9238131F701F70A8331862398
:1003E800813168308231D42281318331B723813120
:1003F8001D2A20081F3A0319E529203A03199C29C8
:10040800703A0319E929103A0319CA29303A03192D
:10041800E129103A03197E29E83A03197729283A7D
:1004280003198529603A0319B329203A0319772952
:100438001D2A0800320098138331A42382318231A7
:10044800E82282318331AE238231833174238231B1
:1004580083314D23823183315723823183310D23F8
:1004680082318231802282318231BE228231630020
:10047800200057080319412A422A3B2A8331BF2307
:100488008231003A0319492A4A2A422A8B138031B9
:10049800692082312000CE004E08CF004F088131FC
:1004A800742182318231802282312000D7018B175A
:1004B8003B2A432820001508F000F1017635A03EBC
:1004C800860087017008C03F7108C13F1608F00018
:1004D800F1017008F100F0017635A03E8600870131
:1004E8007008810741317108813D7F31D6010130A3
:1004F800F0007008F60708002000A001A101200004
:100508002035A03E860087010030C03FC13F013042
:10051800A0070030A13D2108803AF4008030740221
:10052800031D982A21302002031C9B2A9C2A832A17
:10053800F6012000D40108000130F0007008200006
:10054800D0073C305006031DAA2AAB2ABD2AD00189
:100558000130F0007008D10751085306031DB52A71
:10056800B62ABD2AD1018331BB23823183317D2351
:1005780082310800CF3020009B051B083F398038A6
:100588009B001B1532001B179B12200011107908C5
:100598009A0078089900210011140B178B1708008E
:1005A800F400DF2A32001B17E72A32001B13E72A60
:1005B80032001B13E72A7408683A0319D62A043A4A
:1005C8000319D92ADC2A08003200111711159114D1
:1005D80092171215131793169314141794141416CC
:1005E8009416951695149614161516140800F4000A
:1005F8007435A03E860087017435A23E84008501CB
:10060800403F00022000A0000131413F003BA10013
:100618000800F03020009805171618081F394038D0
:100628009800B8309600B8309500210090160B1746
:100638008B1708000130F00070082000D607560814
:100648000319272B282B2E2B8331C223833120001B
:10065800D401D40A0800F5007508F40074082000D5
:10066800D3008331AE2383318331862383318331B1
:10067800B7238331080020005803031D442B452B62
:10068800492B83317D2383314C2B83316123833183
:10069800080022000C1121000C1022000C10200070
:1006A800D801D80A0800210010168B1727009214C9
:1006B80021008C1423008C10080022000C1121004A
:1006C8000C1022000C102000D801D80A08002200C3
:1006D8000C1521000C1022000C142000D801080071
:1006E80021000C1122000C1521000C1022000C1402
:1006F800080022000C1521000C1022000C14200008
:10070800D801080020001B1079089A007808990081
:100718001B14080022000C1121000C142000D80121
:10072800D80A080020001B1079089A007808990058
:100738001B140800640080010131890B9F2B0034D1
:1007480032009F016030990008007508F9007408AC
:10075800F80008002000D001D101D20108002000D3
:100768009B111B10080020009B151B14080020007B
:100778009B111B1008002000540808002000971344
:060788000800FF347F347D
:020000040001F9
:08000E00ECDF33FFFFDFFFFF11
:00000001FF
