:020000040000FA
:02000000432893
:100008007E1480312000101E0A280B281F2801307A
:10001800F3007308D7002700931020001012971BD5
:10002800162817281C28B830960015309500971701
:100038008231872280312000111C23282428382867
:1000480011108331A12380317708031D2C282D2816
:10005800302882315E2280317703031D3428352809
:10006800382883314A2380312000901E3C283D28BF
:10007800412890128331292380317E1009004428B9
:100088008331D0238031F8008331D1238031F900C6
:10009800F601F701503084000030850008308331C4
:1000A800A9238031A030840000308500443083319A
:1000B800A92380312030840001308500203083312D
:1000C800A92380317E1020001E2A253086000030AA
:1000D800870020302000A30000301E00A30B7128E9
:1000E800C501C60100308331062380312000210874
:1000F800C9002008C8000A3049028D300319480297
:10010800031C872888286B290F304902D23003192D
:1001180048020318902891286B29C701C70A470885
:1001280083310623803120002108C9002008C80037
:1001380000304902FB3003194802031CA428A528F3
:10014800B428013049027730031948020318AD2852
:10015800AE28B4284708FF3E253E86008701810166
:1001680001304902F53003194802031CBC28BD2898
:10017800CD2802304902EE30031948020318C52879
:10018800C628CD284708FF3E253E86008701810105
:10019800810A0130A3002308C70721304702031C46
:1001A800D628D72893284408A3002308C507433531
:1001B800A3002308C5074208A3000130A335FF3E6A
:1001C800031DE2282335A4002408C5074108A3001D
:1001D8000230A335FF3E031DED282335A400240873
:1001E800C5074008A3000330A335FF3E031DF828C8
:1001F8002335A4002408C5073F08A3000430A3350D
:10020800FF3E031D03292335A4002408C5073E0823
:10021800A3000530A335FF3E031D0E292335A40096
:100228002408C5073D08A3000630A335FF3E031D7B
:1002380019292335A4002408C5072C08A30023087E
:10024800C6072B35A3002308C6072A08A3000130D8
:10025800A335FF3E031D2C292335A4002408C60717
:100268002908A3000230A335FF3E031D3729233593
:10027800A4002408C6072808A3000330A335FF3EBE
:10028800031D42292335A4002408C6072708A30014
:100298000430A335FF3E031D4D292335A40024084F
:1002A800C6072608A3000530A335FF3E031D5829BD
:1002B8002335A4002408C6072508A3000630A33563
:1002C800FF3E031D63292335A4002408C6074608FA
:1002D800031D6F2970297229450873290030080009
:1002E8002000A000FD298331BE23813183315823AA
:1002F80081311D2A8331762381318331BE238131B7
:100308001D2A8331582381318331B9238131F70183
:10031800FF30F4007F30F5008331B42381316C3035
:100328008231DF228131023083313A2381311D2A23
:100338008331582381318331B9238131F701FF306B
:10034800F4007F30F5008331B42381316C30823181
:10035800DF228131043083313A2381311D2A8331F0
:10036800582381318331B9238131F701FF30F400FB
:100378007F30F5008331B42381316C308231DF2244
:100388008131063083313A2381311D2A8331582344
:1003980081318331B9238131F701FF30F4007F3097
:1003A800F5008331B42381316C308231DF22813111
:1003B800083083313A2381311D2A833199238131D1
:1003C8001D2A8331582381311D2A9930F400F930D0
:1003D800F5008331B4238131F701F70A8331912382
:1003E800813168308231DF2281318331C22381310A
:1003F8001D2A20081F3A0319E529203A03199C29C8
:10040800703A0319E929103A0319CA29303A03192D
:10041800E129103A03197E29E83A03197729283A7D
:1004280003198529603A0319B329203A0319772952
:100438001D2A0800320098138331AF23823182319C
:10044800F32282318331B923823183317F23823190
:1004580083315823823183316223823183311823D7
:1004680082318231A92282318231C92282316300EC
:10047800200057080319412A422A3B2A8331CA23FC
:100488008231003A0319492A4A2A422A8B138031B9
:10049800692082312000CE004E08CF004F088131FC
:1004A800742182318231A92282312000D7018B1731
:1004B8003B2A43280130F00070082000D0073C3068
:1004C8005006031D682A692A862AD0010130F000E7
:1004D8007008D1073C305106031D732A742A862AF6
:1004E800D1010130F0007008D20752085306031DED
:1004F8007E2A7F2A862AD2018331C623823183311C
:1005080088238231080020001508F000F1017635B3
:10051800A03E860087017008C03F7108C13F1608D9
:10052800F000F1017008F100F0017635A03E860078
:1005380087017008810741317108813D7F31D601FB
:100548000130F0007008F60708002000A001A101A2
:1005580020002035A03E860087010030C03FC13F03
:100568000130A0070030A13D2108803AF400803016
:100578007402031DC12A21302002031CC42AC52A83
:10058800AC2AF6012000D4010800CF3020009B05DA
:100598001B083F3980389B001B1532001B179B1224
:1005A8002000111079089A00780899002100111488
:1005B8000B178B170800F400EA2A32001B17F22ADF
:1005C80032001B13F22A32001B13F22A7408683A0D
:1005D8000319E12A043A0319E42AE72A0800320039
:1005E80011171115911492171215131793169314C6
:1005F8001417941414169416951695149614161523
:1006080016140800F4007435A03E8600870174357E
:10061800A23E84008501403F00022000A000013175
:10062800413F003BA1000800F03020009805171654
:1006380018081F3940389800B8309600B83095002F
:10064800210090160B178B1708000130F000700876
:100658002000D60756080319322B332B392B833148
:10066800CD2383312000D401D40A0800F500750891
:10067800F40074082000D3008331B9238331833117
:10068800912383318331C22383310800200058032A
:10069800031D4F2B502B542B833188238331572B29
:1006A80083316C238331080022000C1121000C10C7
:1006B80022000C102000D801D80A080021001016CA
:1006C8008B172700921421008C1423008C1008002B
:1006D80022000C1121000C1022000C102000D8015F
:1006E800D80A080022000C1521000C1022000C1456
:1006F8002000D801080021000C1122000C1521004F
:100708000C1022000C14080022000C1521000C10FB
:1007180022000C142000D801080020001B107908C2
:100728009A00780899001B14080022000C11210077
:100738000C142000D801D80A080020001B107908E2
:100748009A00780899001B140800640080010131A0
:10075800890BAA2B003432009F01603099000800F1
:100768007508F9007408F80008002000D001D101CC
:10077800D201080020009B111B10080020009B15C7
:100788001B14080020009B111B10080020005408AF
:0C0798000800200097130800FF347F3495
:020000040001F9
:08000E00ECDF33FFFFDFFFFF11
:00000001FF
