:020000040000FA
:020000002B28AB
:100008007E1480314E010C1E0A280B2818287E0108
:10001800BF104E010C124B019E1B132814281528E3
:100028009E178131722180314E01121C1C281D2817
:1000380020288231692280314E018C1E24282528EF
:1000480029288C128231372280317E1009002C2811
:10005800F801F901FA0155308400003085000B30B1
:10006800823150228031A030840000308500423037
:1000780082315022803120308400013085004430A4
:100088008231502280317E1040010E292A308600AC
:100098000030870020304001A80000301E00A80B67
:1000A8005228CA010030813146218031400123089D
:1000B800CE002208CD000A304E028D3003194D02C1
:1000C800031C672868280C290F304E02D230031908
:1000D8004D020318702871280C290130CB0000301C
:1000E800CC0040014B088131462180314001230872
:1000F800CE002208CD0000304E02FB3003194D021D
:10010800031C87288828972801304E027730031966
:100118004D0203189028912897284B08FF3E2A3E45
:1001280086008701810101304E02F53003194D0226
:10013800031C9F28A028B02802304E02EE30031975
:100148004D020318A828A928B0284B08FF3E2A3ECC
:10015800860087018101810A0130CB070030CC3D40
:100168004C08803AA80080302802031DBD282130A1
:100178004B02031CC028C128752840014908A80063
:100188002808CA074835A8002808CA074708A80049
:100198000130A835FF3E031DCD282835A9002908C0
:1001A800CA074608A8000230A835FF3E031DD82814
:1001B8002835A9002908CA074508A8000330A8352A
:1001C800FF3E031DE3282835A9002908CA0744086B
:1001D800A8000430A835FF3E031DEE282835A900E5
:1001E8002908CA074308A8000530A835FF3E031DA3
:1001F800F9282835A9002908CA074208A8000630A6
:10020800A835FF3E031D04292835A9002908CA0777
:100218004A08080051018C1382315B2281318231F6
:100228005622813182310E22813182316022813120
:100238008231462281318231282281318131C9219E
:100248008131400118116300823167228131003AFF
:1002580003192F29302928298B1380314A2081310D
:100268004001D3005308D400540881319E218131C4
:100278008131C9218131FA300032890B40298B172D
:1002880027292B28F7007735223E86000130870082
:100298007708A13E8400850100084001A400A5015B
:1002A8002408F3002508F400FF30F5000030F600BC
:1002B8008131EC2181317735203E84000130850081
:1002C800003F73024001A600013F743BA700403F76
:1002D8002607A200413F273DA30008004B011C0848
:1002E800F000F1017935203E860001308700700862
:1002F800C03F7108C13F1D08F000F1017008F1000E
:10030800F0017935203E86000130870070088107AA
:1003180041317108813D7F317A08F0007908A03EAB
:100328008600870170088100FA010130F00070082A
:10033800F9070800F500A62940011811C82940014D
:100348001815C8297508F300F4017408003A031950
:10035800AE29C82973089F3A0319C829303A0319E6
:10036800C829183A0319C829083A0319A329603A71
:100378000319C829303A0319C829183A0319C82992
:10038800083A0319A029C8290800F401F5017435B1
:10039800203E8600013087000030C03FC13F74080E
:1003A800A03E8600870181010130F4070030F53D49
:1003B8007508803AF30080307302031DE529213067
:1003C8007402031CE829E929CB29F901F80108007E
:1003D8004001A001A101731CF229F329F82975082D
:1003E8004001A0077608A13D0130F535F60D890BCF
:1003F800F9290130F436F30C890BFE2973087404CB
:10040800031D072A082AEF2940012108F4002008C3
:10041800F30008004F01161716159614961797172C
:10042800171597171817981698141814191499145B
:1004380019159915191699161A171A141A169B14BC
:100448001B159B151B160800F0304B019F051E1647
:100458001F081F3940389F009D019C014E019616C8
:100468000B178B1708000130F0007008FA077A089C
:1004780003193F2A402A452A823164228231F80131
:10048800F80A08004E0116168B177E01BE144001AB
:1004980092147E01B8100800640080010131890BB4
:1004A800512A0034400112147E0138140800510109
:1004B800930160308D0008004001121118110800E6
:0C04C8004B019E13080078080800080093
:020000040001F9
:0A000E00EA1F3F3F9F3FFF1FFF3F27
:00000001FF
